{
  "_format": "hh-sol-artifact-1",
  "contractName": "RandomIpfsNft",
  "sourceName": "contracts/RandomIpfsNft.sol",
  "abi": [
    {
      "inputs": [
        {
          "internalType": "address",
          "name": "vrfCoordinatorV2",
          "type": "address"
        },
        {
          "internalType": "uint64",
          "name": "subscriptionId",
          "type": "uint64"
        },
        {
          "internalType": "bytes32",
          "name": "gasLane",
          "type": "bytes32"
        },
        {
          "internalType": "uint32",
          "name": "callbackGasLimit",
          "type": "uint32"
        },
        {
          "internalType": "string[3]",
          "name": "dogTokenUris",
          "type": "string[3]"
        },
        {
          "internalType": "uint256",
          "name": "mintFee",
          "type": "uint256"
        }
      ],
      "stateMutability": "nonpayable",
      "type": "constructor"
    },
    {
      "inputs": [
        {
          "internalType": "address",
          "name": "have",
          "type": "address"
        },
        {
          "internalType": "address",
          "name": "want",
          "type": "address"
        }
      ],
      "name": "OnlyCoordinatorCanFulfill",
      "type": "error"
    },
    {
      "inputs": [],
      "name": "RandomIpfsNft__NeedMoreEthSent",
      "type": "error"
    },
    {
      "inputs": [],
      "name": "RandomIpfsNft__TransferFailed",
      "type": "error"
    },
    {
      "inputs": [],
      "name": "RandomIpfsNft__rangeOutOfBounds",
      "type": "error"
    },
    {
      "anonymous": false,
      "inputs": [
        {
          "indexed": true,
          "internalType": "address",
          "name": "owner",
          "type": "address"
        },
        {
          "indexed": true,
          "internalType": "address",
          "name": "approved",
          "type": "address"
        },
        {
          "indexed": true,
          "internalType": "uint256",
          "name": "tokenId",
          "type": "uint256"
        }
      ],
      "name": "Approval",
      "type": "event"
    },
    {
      "anonymous": false,
      "inputs": [
        {
          "indexed": true,
          "internalType": "address",
          "name": "owner",
          "type": "address"
        },
        {
          "indexed": true,
          "internalType": "address",
          "name": "operator",
          "type": "address"
        },
        {
          "indexed": false,
          "internalType": "bool",
          "name": "approved",
          "type": "bool"
        }
      ],
      "name": "ApprovalForAll",
      "type": "event"
    },
    {
      "anonymous": false,
      "inputs": [
        {
          "indexed": false,
          "internalType": "enum RandomIpfsNft.Breed",
          "name": "dogBreed",
          "type": "uint8"
        },
        {
          "indexed": false,
          "internalType": "address",
          "name": "minter",
          "type": "address"
        }
      ],
      "name": "NftMinted",
      "type": "event"
    },
    {
      "anonymous": false,
      "inputs": [
        {
          "indexed": true,
          "internalType": "uint256",
          "name": "requestId",
          "type": "uint256"
        },
        {
          "indexed": false,
          "internalType": "address",
          "name": "requester",
          "type": "address"
        }
      ],
      "name": "NftRequested",
      "type": "event"
    },
    {
      "anonymous": false,
      "inputs": [
        {
          "indexed": true,
          "internalType": "address",
          "name": "previousOwner",
          "type": "address"
        },
        {
          "indexed": true,
          "internalType": "address",
          "name": "newOwner",
          "type": "address"
        }
      ],
      "name": "OwnershipTransferred",
      "type": "event"
    },
    {
      "anonymous": false,
      "inputs": [
        {
          "indexed": true,
          "internalType": "address",
          "name": "from",
          "type": "address"
        },
        {
          "indexed": true,
          "internalType": "address",
          "name": "to",
          "type": "address"
        },
        {
          "indexed": true,
          "internalType": "uint256",
          "name": "tokenId",
          "type": "uint256"
        }
      ],
      "name": "Transfer",
      "type": "event"
    },
    {
      "inputs": [
        {
          "internalType": "address",
          "name": "to",
          "type": "address"
        },
        {
          "internalType": "uint256",
          "name": "tokenId",
          "type": "uint256"
        }
      ],
      "name": "approve",
      "outputs": [],
      "stateMutability": "nonpayable",
      "type": "function"
    },
    {
      "inputs": [
        {
          "internalType": "address",
          "name": "owner",
          "type": "address"
        }
      ],
      "name": "balanceOf",
      "outputs": [
        {
          "internalType": "uint256",
          "name": "",
          "type": "uint256"
        }
      ],
      "stateMutability": "view",
      "type": "function"
    },
    {
      "inputs": [
        {
          "internalType": "uint256",
          "name": "tokenId",
          "type": "uint256"
        }
      ],
      "name": "getApproved",
      "outputs": [
        {
          "internalType": "address",
          "name": "",
          "type": "address"
        }
      ],
      "stateMutability": "view",
      "type": "function"
    },
    {
      "inputs": [
        {
          "internalType": "uint256",
          "name": "moddedRng",
          "type": "uint256"
        }
      ],
      "name": "getBreedFromModdedRng",
      "outputs": [
        {
          "internalType": "enum RandomIpfsNft.Breed",
          "name": "",
          "type": "uint8"
        }
      ],
      "stateMutability": "pure",
      "type": "function"
    },
    {
      "inputs": [],
      "name": "getChanceArray",
      "outputs": [
        {
          "internalType": "uint256[3]",
          "name": "",
          "type": "uint256[3]"
        }
      ],
      "stateMutability": "pure",
      "type": "function"
    },
    {
      "inputs": [
        {
          "internalType": "uint256",
          "name": "index",
          "type": "uint256"
        }
      ],
      "name": "getDogTokenUris",
      "outputs": [
        {
          "internalType": "string",
          "name": "",
          "type": "string"
        }
      ],
      "stateMutability": "view",
      "type": "function"
    },
    {
      "inputs": [],
      "name": "getTokenCounter",
      "outputs": [
        {
          "internalType": "uint256",
          "name": "",
          "type": "uint256"
        }
      ],
      "stateMutability": "view",
      "type": "function"
    },
    {
      "inputs": [],
      "name": "getmintFee",
      "outputs": [
        {
          "internalType": "uint256",
          "name": "",
          "type": "uint256"
        }
      ],
      "stateMutability": "view",
      "type": "function"
    },
    {
      "inputs": [
        {
          "internalType": "address",
          "name": "owner",
          "type": "address"
        },
        {
          "internalType": "address",
          "name": "operator",
          "type": "address"
        }
      ],
      "name": "isApprovedForAll",
      "outputs": [
        {
          "internalType": "bool",
          "name": "",
          "type": "bool"
        }
      ],
      "stateMutability": "view",
      "type": "function"
    },
    {
      "inputs": [],
      "name": "name",
      "outputs": [
        {
          "internalType": "string",
          "name": "",
          "type": "string"
        }
      ],
      "stateMutability": "view",
      "type": "function"
    },
    {
      "inputs": [],
      "name": "owner",
      "outputs": [
        {
          "internalType": "address",
          "name": "",
          "type": "address"
        }
      ],
      "stateMutability": "view",
      "type": "function"
    },
    {
      "inputs": [
        {
          "internalType": "uint256",
          "name": "tokenId",
          "type": "uint256"
        }
      ],
      "name": "ownerOf",
      "outputs": [
        {
          "internalType": "address",
          "name": "",
          "type": "address"
        }
      ],
      "stateMutability": "view",
      "type": "function"
    },
    {
      "inputs": [
        {
          "internalType": "uint256",
          "name": "requestId",
          "type": "uint256"
        },
        {
          "internalType": "uint256[]",
          "name": "randomWords",
          "type": "uint256[]"
        }
      ],
      "name": "rawFulfillRandomWords",
      "outputs": [],
      "stateMutability": "nonpayable",
      "type": "function"
    },
    {
      "inputs": [],
      "name": "renounceOwnership",
      "outputs": [],
      "stateMutability": "nonpayable",
      "type": "function"
    },
    {
      "inputs": [],
      "name": "requestNft",
      "outputs": [
        {
          "internalType": "uint256",
          "name": "requestId",
          "type": "uint256"
        }
      ],
      "stateMutability": "payable",
      "type": "function"
    },
    {
      "inputs": [
        {
          "internalType": "uint256",
          "name": "",
          "type": "uint256"
        }
      ],
      "name": "s_requestIdToSender",
      "outputs": [
        {
          "internalType": "address",
          "name": "",
          "type": "address"
        }
      ],
      "stateMutability": "view",
      "type": "function"
    },
    {
      "inputs": [],
      "name": "s_tokenCounter",
      "outputs": [
        {
          "internalType": "uint256",
          "name": "",
          "type": "uint256"
        }
      ],
      "stateMutability": "view",
      "type": "function"
    },
    {
      "inputs": [
        {
          "internalType": "address",
          "name": "from",
          "type": "address"
        },
        {
          "internalType": "address",
          "name": "to",
          "type": "address"
        },
        {
          "internalType": "uint256",
          "name": "tokenId",
          "type": "uint256"
        }
      ],
      "name": "safeTransferFrom",
      "outputs": [],
      "stateMutability": "nonpayable",
      "type": "function"
    },
    {
      "inputs": [
        {
          "internalType": "address",
          "name": "from",
          "type": "address"
        },
        {
          "internalType": "address",
          "name": "to",
          "type": "address"
        },
        {
          "internalType": "uint256",
          "name": "tokenId",
          "type": "uint256"
        },
        {
          "internalType": "bytes",
          "name": "data",
          "type": "bytes"
        }
      ],
      "name": "safeTransferFrom",
      "outputs": [],
      "stateMutability": "nonpayable",
      "type": "function"
    },
    {
      "inputs": [
        {
          "internalType": "address",
          "name": "operator",
          "type": "address"
        },
        {
          "internalType": "bool",
          "name": "approved",
          "type": "bool"
        }
      ],
      "name": "setApprovalForAll",
      "outputs": [],
      "stateMutability": "nonpayable",
      "type": "function"
    },
    {
      "inputs": [
        {
          "internalType": "bytes4",
          "name": "interfaceId",
          "type": "bytes4"
        }
      ],
      "name": "supportsInterface",
      "outputs": [
        {
          "internalType": "bool",
          "name": "",
          "type": "bool"
        }
      ],
      "stateMutability": "view",
      "type": "function"
    },
    {
      "inputs": [],
      "name": "symbol",
      "outputs": [
        {
          "internalType": "string",
          "name": "",
          "type": "string"
        }
      ],
      "stateMutability": "view",
      "type": "function"
    },
    {
      "inputs": [
        {
          "internalType": "uint256",
          "name": "tokenId",
          "type": "uint256"
        }
      ],
      "name": "tokenURI",
      "outputs": [
        {
          "internalType": "string",
          "name": "",
          "type": "string"
        }
      ],
      "stateMutability": "view",
      "type": "function"
    },
    {
      "inputs": [
        {
          "internalType": "address",
          "name": "from",
          "type": "address"
        },
        {
          "internalType": "address",
          "name": "to",
          "type": "address"
        },
        {
          "internalType": "uint256",
          "name": "tokenId",
          "type": "uint256"
        }
      ],
      "name": "transferFrom",
      "outputs": [],
      "stateMutability": "nonpayable",
      "type": "function"
    },
    {
      "inputs": [
        {
          "internalType": "address",
          "name": "newOwner",
          "type": "address"
        }
      ],
      "name": "transferOwnership",
      "outputs": [],
      "stateMutability": "nonpayable",
      "type": "function"
    },
    {
      "inputs": [],
      "name": "withDraw",
      "outputs": [],
      "stateMutability": "nonpayable",
      "type": "function"
    }
  ],
  "bytecode": "0x6101206040523480156200001257600080fd5b506040516200450d3803806200450d833981810160405281019062000038919062000809565b6040518060400160405280600f81526020017f52616e646f6d2049504653204e465400000000000000000000000000000000008152506040518060400160405280600381526020017f52494e0000000000000000000000000000000000000000000000000000000000815250878073ffffffffffffffffffffffffffffffffffffffff1660808173ffffffffffffffffffffffffffffffffffffffff1660601b81525050508160009080519060200190620000f59291906200029c565b5080600190805190602001906200010e9291906200029c565b5050506200013162000125620001ce60201b60201c565b620001d660201b60201c565b8573ffffffffffffffffffffffffffffffffffffffff1660a08173ffffffffffffffffffffffffffffffffffffffff1660601b815250508467ffffffffffffffff1660c08167ffffffffffffffff1660c01b815250508263ffffffff166101008163ffffffff1660e01b815250508360e0818152505081600a906003620001ba9291906200032d565b5080600b8190555050505050505062000929565b600033905090565b6000600760009054906101000a900473ffffffffffffffffffffffffffffffffffffffff16905081600760006101000a81548173ffffffffffffffffffffffffffffffffffffffff021916908373ffffffffffffffffffffffffffffffffffffffff1602179055508173ffffffffffffffffffffffffffffffffffffffff168173ffffffffffffffffffffffffffffffffffffffff167f8be0079c531659141344cd1fd0a4f28419497f9722a3daafe3b4186f6b6457e060405160405180910390a35050565b828054620002aa90620008f3565b90600052602060002090601f016020900481019282620002ce57600085556200031a565b82601f10620002e957805160ff19168380011785556200031a565b828001600101855582156200031a579182015b8281111562000319578251825591602001919060010190620002fc565b5b50905062000329919062000394565b5090565b82805482825590600052602060002090810192821562000381579160200282015b82811115620003805782518290805190602001906200036f9291906200029c565b50916020019190600101906200034e565b5b509050620003909190620003b3565b5090565b5b80821115620003af57600081600090555060010162000395565b5090565b5b80821115620003d75760008181620003cd9190620003db565b50600101620003b4565b5090565b508054620003e990620008f3565b6000825580601f10620003fd57506200041e565b601f0160209004906000526020600020908101906200041d919062000394565b5b50565b6000604051905090565b600080fd5b600080fd5b600073ffffffffffffffffffffffffffffffffffffffff82169050919050565b6000620004628262000435565b9050919050565b620004748162000455565b81146200048057600080fd5b50565b600081519050620004948162000469565b92915050565b600067ffffffffffffffff82169050919050565b620004b9816200049a565b8114620004c557600080fd5b50565b600081519050620004d981620004ae565b92915050565b6000819050919050565b620004f481620004df565b81146200050057600080fd5b50565b6000815190506200051481620004e9565b92915050565b600063ffffffff82169050919050565b62000535816200051a565b81146200054157600080fd5b50565b60008151905062000555816200052a565b92915050565b600080fd5b6000601f19601f8301169050919050565b7f4e487b7100000000000000000000000000000000000000000000000000000000600052604160045260246000fd5b620005ab8262000560565b810181811067ffffffffffffffff82111715620005cd57620005cc62000571565b5b80604052505050565b6000620005e262000421565b9050620005f08282620005a0565b919050565b600067ffffffffffffffff82111562000613576200061262000571565b5b602082029050919050565b600080fd5b600080fd5b600067ffffffffffffffff82111562000646576200064562000571565b5b620006518262000560565b9050602081019050919050565b60005b838110156200067e57808201518184015260208101905062000661565b838111156200068e576000848401525b50505050565b6000620006ab620006a58462000628565b620005d6565b905082815260208101848484011115620006ca57620006c962000623565b5b620006d78482856200065e565b509392505050565b600082601f830112620006f757620006f66200055b565b5b81516200070984826020860162000694565b91505092915050565b6000620007296200072384620005f5565b620005d6565b905080602084028301858111156200074657620007456200061e565b5b835b818110156200079457805167ffffffffffffffff8111156200076f576200076e6200055b565b5b8086016200077e8982620006df565b8552602085019450505060208101905062000748565b5050509392505050565b600082601f830112620007b657620007b56200055b565b5b6003620007c584828562000712565b91505092915050565b6000819050919050565b620007e381620007ce565b8114620007ef57600080fd5b50565b6000815190506200080381620007d8565b92915050565b60008060008060008060c087890312156200082957620008286200042b565b5b60006200083989828a0162000483565b96505060206200084c89828a01620004c8565b95505060406200085f89828a0162000503565b94505060606200087289828a0162000544565b935050608087015167ffffffffffffffff81111562000896576200089562000430565b5b620008a489828a016200079e565b92505060a0620008b789828a01620007f2565b9150509295509295509295565b7f4e487b7100000000000000000000000000000000000000000000000000000000600052602260045260246000fd5b600060028204905060018216806200090c57607f821691505b60208210811415620009235762000922620008c4565b5b50919050565b60805160601c60a05160601c60c05160c01c60e0516101005160e01c613b8c620009816000396000610ff801526000610fb401526000610fd501526000610f780152600081816109d10152610a250152613b8c6000f3fe6080604052600436106101815760003560e01c80636e02007d116100d1578063a36f573b1161008a578063b88d4fde11610064578063b88d4fde14610577578063c87b56dd146105a0578063e985e9c5146105dd578063f2fde38b1461061a57610181565b8063a36f573b146104df578063a51cccf31461051c578063aa1524911461055957610181565b80636e02007d146103e157806370a082311461040c578063715018a6146104495780638da5cb5b1461046057806395d89b411461048b578063a22cb465146104b657610181565b80631fe543e31161013e5780633af25975116101185780633af259751461031357806342842e0e146103505780635dacf5f4146103795780636352211e146103a457610181565b80631fe543e314610296578063239dfe40146102bf57806323b872dd146102ea57610181565b806301ffc9a71461018657806306fdde03146101c3578063081812fc146101ee578063095ea7b31461022b5780630b21a83b146102545780630fdb1c101461027f575b600080fd5b34801561019257600080fd5b506101ad60048036038101906101a8919061276b565b610643565b6040516101ba91906127b3565b60405180910390f35b3480156101cf57600080fd5b506101d8610725565b6040516101e59190612867565b60405180910390f35b3480156101fa57600080fd5b50610215600480360381019061021091906128bf565b6107b7565b604051610222919061292d565b60405180910390f35b34801561023757600080fd5b50610252600480360381019061024d9190612974565b6107fd565b005b34801561026057600080fd5b50610269610915565b60405161027691906129c3565b60405180910390f35b34801561028b57600080fd5b5061029461091b565b005b3480156102a257600080fd5b506102bd60048036038101906102b89190612b26565b6109cf565b005b3480156102cb57600080fd5b506102d4610a8f565b6040516102e191906129c3565b60405180910390f35b3480156102f657600080fd5b50610311600480360381019061030c9190612b82565b610a99565b005b34801561031f57600080fd5b5061033a600480360381019061033591906128bf565b610af9565b6040516103479190612867565b60405180910390f35b34801561035c57600080fd5b5061037760048036038101906103729190612b82565b610ba9565b005b34801561038557600080fd5b5061038e610bc9565b60405161039b9190612c80565b60405180910390f35b3480156103b057600080fd5b506103cb60048036038101906103c691906128bf565b610bf4565b6040516103d8919061292d565b60405180910390f35b3480156103ed57600080fd5b506103f6610c7b565b60405161040391906129c3565b60405180910390f35b34801561041857600080fd5b50610433600480360381019061042e9190612c9b565b610c85565b60405161044091906129c3565b60405180910390f35b34801561045557600080fd5b5061045e610d3d565b005b34801561046c57600080fd5b50610475610d51565b604051610482919061292d565b60405180910390f35b34801561049757600080fd5b506104a0610d7b565b6040516104ad9190612867565b60405180910390f35b3480156104c257600080fd5b506104dd60048036038101906104d89190612cf4565b610e0d565b005b3480156104eb57600080fd5b50610506600480360381019061050191906128bf565b610e23565b604051610513919061292d565b60405180910390f35b34801561052857600080fd5b50610543600480360381019061053e91906128bf565b610e56565b6040516105509190612dab565b60405180910390f35b610561610f38565b60405161056e91906129c3565b60405180910390f35b34801561058357600080fd5b5061059e60048036038101906105999190612e7b565b6110e2565b005b3480156105ac57600080fd5b506105c760048036038101906105c291906128bf565b611144565b6040516105d49190612867565b60405180910390f35b3480156105e957600080fd5b5061060460048036038101906105ff9190612efe565b611257565b60405161061191906127b3565b60405180910390f35b34801561062657600080fd5b50610641600480360381019061063c9190612c9b565b6112eb565b005b60007f80ac58cd000000000000000000000000000000000000000000000000000000007bffffffffffffffffffffffffffffffffffffffffffffffffffffffff1916827bffffffffffffffffffffffffffffffffffffffffffffffffffffffff1916148061070e57507f5b5e139f000000000000000000000000000000000000000000000000000000007bffffffffffffffffffffffffffffffffffffffffffffffffffffffff1916827bffffffffffffffffffffffffffffffffffffffffffffffffffffffff1916145b8061071e575061071d8261136f565b5b9050919050565b60606000805461073490612f6d565b80601f016020809104026020016040519081016040528092919081815260200182805461076090612f6d565b80156107ad5780601f10610782576101008083540402835291602001916107ad565b820191906000526020600020905b81548152906001019060200180831161079057829003601f168201915b5050505050905090565b60006107c2826113d9565b6004600083815260200190815260200160002060009054906101000a900473ffffffffffffffffffffffffffffffffffffffff169050919050565b600061080882610bf4565b90508073ffffffffffffffffffffffffffffffffffffffff168373ffffffffffffffffffffffffffffffffffffffff161415610879576040517f08c379a000000000000000000000000000000000000000000000000000000000815260040161087090613011565b60405180910390fd5b8073ffffffffffffffffffffffffffffffffffffffff16610898611424565b73ffffffffffffffffffffffffffffffffffffffff1614806108c757506108c6816108c1611424565b611257565b5b610906576040517f08c379a00000000000000000000000000000000000000000000000000000000081526004016108fd906130a3565b60405180910390fd5b610910838361142c565b505050565b60095481565b6109236114e5565b600047905060003373ffffffffffffffffffffffffffffffffffffffff168260405161094e906130f4565b60006040518083038185875af1925050503d806000811461098b576040519150601f19603f3d011682016040523d82523d6000602084013e610990565b606091505b50509050806109cb576040517fca7e25b700000000000000000000000000000000000000000000000000000000815260040160405180910390fd5b5050565b7f000000000000000000000000000000000000000000000000000000000000000073ffffffffffffffffffffffffffffffffffffffff163373ffffffffffffffffffffffffffffffffffffffff1614610a8157337f00000000000000000000000000000000000000000000000000000000000000006040517f1cf993f4000000000000000000000000000000000000000000000000000000008152600401610a78929190613109565b60405180910390fd5b610a8b8282611563565b5050565b6000600b54905090565b610aaa610aa4611424565b82611703565b610ae9576040517f08c379a0000000000000000000000000000000000000000000000000000000008152600401610ae0906131a4565b60405180910390fd5b610af4838383611798565b505050565b6060600a8281548110610b0f57610b0e6131c4565b5b906000526020600020018054610b2490612f6d565b80601f0160208091040260200160405190810160405280929190818152602001828054610b5090612f6d565b8015610b9d5780601f10610b7257610100808354040283529160200191610b9d565b820191906000526020600020905b815481529060010190602001808311610b8057829003601f168201915b50505050509050919050565b610bc4838383604051806020016040528060008152506110e2565b505050565b610bd161263a565b6040518060600160405280600a8152602001601e81526020016064815250905090565b600080610c0083611a92565b9050600073ffffffffffffffffffffffffffffffffffffffff168173ffffffffffffffffffffffffffffffffffffffff161415610c72576040517f08c379a0000000000000000000000000000000000000000000000000000000008152600401610c699061323f565b60405180910390fd5b80915050919050565b6000600954905090565b60008073ffffffffffffffffffffffffffffffffffffffff168273ffffffffffffffffffffffffffffffffffffffff161415610cf6576040517f08c379a0000000000000000000000000000000000000000000000000000000008152600401610ced906132d1565b60405180910390fd5b600360008373ffffffffffffffffffffffffffffffffffffffff1673ffffffffffffffffffffffffffffffffffffffff168152602001908152602001600020549050919050565b610d456114e5565b610d4f6000611acf565b565b6000600760009054906101000a900473ffffffffffffffffffffffffffffffffffffffff16905090565b606060018054610d8a90612f6d565b80601f0160208091040260200160405190810160405280929190818152602001828054610db690612f6d565b8015610e035780601f10610dd857610100808354040283529160200191610e03565b820191906000526020600020905b815481529060010190602001808311610de657829003601f168201915b5050505050905090565b610e1f610e18611424565b8383611b95565b5050565b60086020528060005260406000206000915054906101000a900473ffffffffffffffffffffffffffffffffffffffff1681565b600080600090506000610e67610bc9565b905060005b6003811015610f0057828510158015610ea65750818160038110610e9357610e926131c4565b5b602002015183610ea39190613320565b85105b15610ec857806002811115610ebe57610ebd612d34565b5b9350505050610f33565b818160038110610edb57610eda6131c4565b5b602002015183610eeb9190613320565b92508080610ef890613376565b915050610e6c565b506040517ff13b0f9f00000000000000000000000000000000000000000000000000000000815260040160405180910390fd5b919050565b6000600b54341015610f76576040517ff64fbfee00000000000000000000000000000000000000000000000000000000815260040160405180910390fd5b7f000000000000000000000000000000000000000000000000000000000000000073ffffffffffffffffffffffffffffffffffffffff16635d3b1d307f00000000000000000000000000000000000000000000000000000000000000007f000000000000000000000000000000000000000000000000000000000000000060037f000000000000000000000000000000000000000000000000000000000000000060016040518663ffffffff1660e01b8152600401611039959493929190613437565b602060405180830381600087803b15801561105357600080fd5b505af1158015611067573d6000803e3d6000fd5b505050506040513d601f19601f8201168201806040525081019061108b919061349f565b9050336008600083815260200190815260200160002060006101000a81548173ffffffffffffffffffffffffffffffffffffffff021916908373ffffffffffffffffffffffffffffffffffffffff16021790555090565b6110f36110ed611424565b83611703565b611132576040517f08c379a0000000000000000000000000000000000000000000000000000000008152600401611129906131a4565b60405180910390fd5b61113e84848484611d02565b50505050565b606061114f826113d9565b600060066000848152602001908152602001600020805461116f90612f6d565b80601f016020809104026020016040519081016040528092919081815260200182805461119b90612f6d565b80156111e85780601f106111bd576101008083540402835291602001916111e8565b820191906000526020600020905b8154815290600101906020018083116111cb57829003601f168201915b5050505050905060006111f9611d5e565b905060008151141561120f578192505050611252565b60008251111561124457808260405160200161122c929190613508565b60405160208183030381529060405292505050611252565b61124d84611d75565b925050505b919050565b6000600560008473ffffffffffffffffffffffffffffffffffffffff1673ffffffffffffffffffffffffffffffffffffffff16815260200190815260200160002060008373ffffffffffffffffffffffffffffffffffffffff1673ffffffffffffffffffffffffffffffffffffffff16815260200190815260200160002060009054906101000a900460ff16905092915050565b6112f36114e5565b600073ffffffffffffffffffffffffffffffffffffffff168173ffffffffffffffffffffffffffffffffffffffff161415611363576040517f08c379a000000000000000000000000000000000000000000000000000000000815260040161135a9061359e565b60405180910390fd5b61136c81611acf565b50565b60007f01ffc9a7000000000000000000000000000000000000000000000000000000007bffffffffffffffffffffffffffffffffffffffffffffffffffffffff1916827bffffffffffffffffffffffffffffffffffffffffffffffffffffffff1916149050919050565b6113e281611ddd565b611421576040517f08c379a00000000000000000000000000000000000000000000000000000000081526004016114189061323f565b60405180910390fd5b50565b600033905090565b816004600083815260200190815260200160002060006101000a81548173ffffffffffffffffffffffffffffffffffffffff021916908373ffffffffffffffffffffffffffffffffffffffff160217905550808273ffffffffffffffffffffffffffffffffffffffff1661149f83610bf4565b73ffffffffffffffffffffffffffffffffffffffff167f8c5be1e5ebec7d5bd14f71427d1e84f3dd0314c0f7b2291e5b200ac8c7c3b92560405160405180910390a45050565b6114ed611424565b73ffffffffffffffffffffffffffffffffffffffff1661150b610d51565b73ffffffffffffffffffffffffffffffffffffffff1614611561576040517f08c379a00000000000000000000000000000000000000000000000000000000081526004016115589061360a565b60405180910390fd5b565b60006008600084815260200190815260200160002060009054906101000a900473ffffffffffffffffffffffffffffffffffffffff1690506000600954905060006064846000815181106115ba576115b96131c4565b5b60200260200101516115cc9190613659565b905060006115d982610e56565b9050600954600960008282546115ef9190613320565b925050819055506116008484611e1e565b6116c283600a83600281111561161957611618612d34565b5b8154811061162a576116296131c4565b5b90600052602060002001805461163f90612f6d565b80601f016020809104026020016040519081016040528092919081815260200182805461166b90612f6d565b80156116b85780601f1061168d576101008083540402835291602001916116b8565b820191906000526020600020905b81548152906001019060200180831161169b57829003601f168201915b5050505050611e3c565b7f8a269f26b688e110e9cbd887d163dab35cae678fa353a0292de532c0cac1ecdc81856040516116f392919061368a565b60405180910390a1505050505050565b60008061170f83610bf4565b90508073ffffffffffffffffffffffffffffffffffffffff168473ffffffffffffffffffffffffffffffffffffffff16148061175157506117508185611257565b5b8061178f57508373ffffffffffffffffffffffffffffffffffffffff16611777846107b7565b73ffffffffffffffffffffffffffffffffffffffff16145b91505092915050565b8273ffffffffffffffffffffffffffffffffffffffff166117b882610bf4565b73ffffffffffffffffffffffffffffffffffffffff161461180e576040517f08c379a000000000000000000000000000000000000000000000000000000000815260040161180590613725565b60405180910390fd5b600073ffffffffffffffffffffffffffffffffffffffff168273ffffffffffffffffffffffffffffffffffffffff16141561187e576040517f08c379a0000000000000000000000000000000000000000000000000000000008152600401611875906137b7565b60405180910390fd5b61188b8383836001611eb0565b8273ffffffffffffffffffffffffffffffffffffffff166118ab82610bf4565b73ffffffffffffffffffffffffffffffffffffffff1614611901576040517f08c379a00000000000000000000000000000000000000000000000000000000081526004016118f890613725565b60405180910390fd5b6004600082815260200190815260200160002060006101000a81549073ffffffffffffffffffffffffffffffffffffffff02191690556001600360008573ffffffffffffffffffffffffffffffffffffffff1673ffffffffffffffffffffffffffffffffffffffff168152602001908152602001600020600082825403925050819055506001600360008473ffffffffffffffffffffffffffffffffffffffff1673ffffffffffffffffffffffffffffffffffffffff16815260200190815260200160002060008282540192505081905550816002600083815260200190815260200160002060006101000a81548173ffffffffffffffffffffffffffffffffffffffff021916908373ffffffffffffffffffffffffffffffffffffffff160217905550808273ffffffffffffffffffffffffffffffffffffffff168473ffffffffffffffffffffffffffffffffffffffff167fddf252ad1be2c89b69c2b068fc378daa952ba7f163c4a11628f55a4df523b3ef60405160405180910390a4611a8d8383836001611fd6565b505050565b60006002600083815260200190815260200160002060009054906101000a900473ffffffffffffffffffffffffffffffffffffffff169050919050565b6000600760009054906101000a900473ffffffffffffffffffffffffffffffffffffffff16905081600760006101000a81548173ffffffffffffffffffffffffffffffffffffffff021916908373ffffffffffffffffffffffffffffffffffffffff1602179055508173ffffffffffffffffffffffffffffffffffffffff168173ffffffffffffffffffffffffffffffffffffffff167f8be0079c531659141344cd1fd0a4f28419497f9722a3daafe3b4186f6b6457e060405160405180910390a35050565b8173ffffffffffffffffffffffffffffffffffffffff168373ffffffffffffffffffffffffffffffffffffffff161415611c04576040517f08c379a0000000000000000000000000000000000000000000000000000000008152600401611bfb90613823565b60405180910390fd5b80600560008573ffffffffffffffffffffffffffffffffffffffff1673ffffffffffffffffffffffffffffffffffffffff16815260200190815260200160002060008473ffffffffffffffffffffffffffffffffffffffff1673ffffffffffffffffffffffffffffffffffffffff16815260200190815260200160002060006101000a81548160ff0219169083151502179055508173ffffffffffffffffffffffffffffffffffffffff168373ffffffffffffffffffffffffffffffffffffffff167f17307eab39ab6107e8899845ad3d59bd9653f200f220920489ca2b5937696c3183604051611cf591906127b3565b60405180910390a3505050565b611d0d848484611798565b611d1984848484611fdc565b611d58576040517f08c379a0000000000000000000000000000000000000000000000000000000008152600401611d4f906138b5565b60405180910390fd5b50505050565b606060405180602001604052806000815250905090565b6060611d80826113d9565b6000611d8a611d5e565b90506000815111611daa5760405180602001604052806000815250611dd5565b80611db484612173565b604051602001611dc5929190613508565b6040516020818303038152906040525b915050919050565b60008073ffffffffffffffffffffffffffffffffffffffff16611dff83611a92565b73ffffffffffffffffffffffffffffffffffffffff1614159050919050565b611e3882826040518060200160405280600081525061224b565b5050565b611e4582611ddd565b611e84576040517f08c379a0000000000000000000000000000000000000000000000000000000008152600401611e7b90613947565b60405180910390fd5b80600660008481526020019081526020016000209080519060200190611eab92919061265c565b505050565b6001811115611fd057600073ffffffffffffffffffffffffffffffffffffffff168473ffffffffffffffffffffffffffffffffffffffff1614611f445780600360008673ffffffffffffffffffffffffffffffffffffffff1673ffffffffffffffffffffffffffffffffffffffff1681526020019081526020016000206000828254611f3c9190613967565b925050819055505b600073ffffffffffffffffffffffffffffffffffffffff168373ffffffffffffffffffffffffffffffffffffffff1614611fcf5780600360008573ffffffffffffffffffffffffffffffffffffffff1673ffffffffffffffffffffffffffffffffffffffff1681526020019081526020016000206000828254611fc79190613320565b925050819055505b5b50505050565b50505050565b6000611ffd8473ffffffffffffffffffffffffffffffffffffffff166122a6565b15612166578373ffffffffffffffffffffffffffffffffffffffff1663150b7a02612026611424565b8786866040518563ffffffff1660e01b815260040161204894939291906139f0565b602060405180830381600087803b15801561206257600080fd5b505af192505050801561209357506040513d601f19601f820116820180604052508101906120909190613a51565b60015b612116573d80600081146120c3576040519150601f19603f3d011682016040523d82523d6000602084013e6120c8565b606091505b5060008151141561210e576040517f08c379a0000000000000000000000000000000000000000000000000000000008152600401612105906138b5565b60405180910390fd5b805181602001fd5b63150b7a0260e01b7bffffffffffffffffffffffffffffffffffffffffffffffffffffffff1916817bffffffffffffffffffffffffffffffffffffffffffffffffffffffff19161491505061216b565b600190505b949350505050565b606060006001612182846122c9565b01905060008167ffffffffffffffff8111156121a1576121a06129e3565b5b6040519080825280601f01601f1916602001820160405280156121d35781602001600182028036833780820191505090505b509050600082602001820190505b600115612240578080600190039150507f3031323334353637383961626364656600000000000000000000000000000000600a86061a8153600a858161222a5761222961362a565b5b049450600085141561223b57612240565b6121e1565b819350505050919050565b612255838361241c565b6122626000848484611fdc565b6122a1576040517f08c379a0000000000000000000000000000000000000000000000000000000008152600401612298906138b5565b60405180910390fd5b505050565b6000808273ffffffffffffffffffffffffffffffffffffffff163b119050919050565b600080600090507a184f03e93ff9f4daa797ed6e38ed64bf6a1f0100000000000000008310612327577a184f03e93ff9f4daa797ed6e38ed64bf6a1f010000000000000000838161231d5761231c61362a565b5b0492506040810190505b6d04ee2d6d415b85acef81000000008310612364576d04ee2d6d415b85acef8100000000838161235a5761235961362a565b5b0492506020810190505b662386f26fc10000831061239357662386f26fc1000083816123895761238861362a565b5b0492506010810190505b6305f5e10083106123bc576305f5e10083816123b2576123b161362a565b5b0492506008810190505b61271083106123e15761271083816123d7576123d661362a565b5b0492506004810190505b6064831061240457606483816123fa576123f961362a565b5b0492506002810190505b600a8310612413576001810190505b80915050919050565b600073ffffffffffffffffffffffffffffffffffffffff168273ffffffffffffffffffffffffffffffffffffffff16141561248c576040517f08c379a000000000000000000000000000000000000000000000000000000000815260040161248390613aca565b60405180910390fd5b61249581611ddd565b156124d5576040517f08c379a00000000000000000000000000000000000000000000000000000000081526004016124cc90613b36565b60405180910390fd5b6124e3600083836001611eb0565b6124ec81611ddd565b1561252c576040517f08c379a000000000000000000000000000000000000000000000000000000000815260040161252390613b36565b60405180910390fd5b6001600360008473ffffffffffffffffffffffffffffffffffffffff1673ffffffffffffffffffffffffffffffffffffffff16815260200190815260200160002060008282540192505081905550816002600083815260200190815260200160002060006101000a81548173ffffffffffffffffffffffffffffffffffffffff021916908373ffffffffffffffffffffffffffffffffffffffff160217905550808273ffffffffffffffffffffffffffffffffffffffff16600073ffffffffffffffffffffffffffffffffffffffff167fddf252ad1be2c89b69c2b068fc378daa952ba7f163c4a11628f55a4df523b3ef60405160405180910390a4612636600083836001611fd6565b5050565b6040518060600160405280600390602082028036833780820191505090505090565b82805461266890612f6d565b90600052602060002090601f01602090048101928261268a57600085556126d1565b82601f106126a357805160ff19168380011785556126d1565b828001600101855582156126d1579182015b828111156126d05782518255916020019190600101906126b5565b5b5090506126de91906126e2565b5090565b5b808211156126fb5760008160009055506001016126e3565b5090565b6000604051905090565b600080fd5b600080fd5b60007fffffffff0000000000000000000000000000000000000000000000000000000082169050919050565b61274881612713565b811461275357600080fd5b50565b6000813590506127658161273f565b92915050565b60006020828403121561278157612780612709565b5b600061278f84828501612756565b91505092915050565b60008115159050919050565b6127ad81612798565b82525050565b60006020820190506127c860008301846127a4565b92915050565b600081519050919050565b600082825260208201905092915050565b60005b838110156128085780820151818401526020810190506127ed565b83811115612817576000848401525b50505050565b6000601f19601f8301169050919050565b6000612839826127ce565b61284381856127d9565b93506128538185602086016127ea565b61285c8161281d565b840191505092915050565b60006020820190508181036000830152612881818461282e565b905092915050565b6000819050919050565b61289c81612889565b81146128a757600080fd5b50565b6000813590506128b981612893565b92915050565b6000602082840312156128d5576128d4612709565b5b60006128e3848285016128aa565b91505092915050565b600073ffffffffffffffffffffffffffffffffffffffff82169050919050565b6000612917826128ec565b9050919050565b6129278161290c565b82525050565b6000602082019050612942600083018461291e565b92915050565b6129518161290c565b811461295c57600080fd5b50565b60008135905061296e81612948565b92915050565b6000806040838503121561298b5761298a612709565b5b60006129998582860161295f565b92505060206129aa858286016128aa565b9150509250929050565b6129bd81612889565b82525050565b60006020820190506129d860008301846129b4565b92915050565b600080fd5b7f4e487b7100000000000000000000000000000000000000000000000000000000600052604160045260246000fd5b612a1b8261281d565b810181811067ffffffffffffffff82111715612a3a57612a396129e3565b5b80604052505050565b6000612a4d6126ff565b9050612a598282612a12565b919050565b600067ffffffffffffffff821115612a7957612a786129e3565b5b602082029050602081019050919050565b600080fd5b6000612aa2612a9d84612a5e565b612a43565b90508083825260208201905060208402830185811115612ac557612ac4612a8a565b5b835b81811015612aee5780612ada88826128aa565b845260208401935050602081019050612ac7565b5050509392505050565b600082601f830112612b0d57612b0c6129de565b5b8135612b1d848260208601612a8f565b91505092915050565b60008060408385031215612b3d57612b3c612709565b5b6000612b4b858286016128aa565b925050602083013567ffffffffffffffff811115612b6c57612b6b61270e565b5b612b7885828601612af8565b9150509250929050565b600080600060608486031215612b9b57612b9a612709565b5b6000612ba98682870161295f565b9350506020612bba8682870161295f565b9250506040612bcb868287016128aa565b9150509250925092565b600060039050919050565b600081905092915050565b6000819050919050565b612bfe81612889565b82525050565b6000612c108383612bf5565b60208301905092915050565b6000602082019050919050565b612c3281612bd5565b612c3c8184612be0565b9250612c4782612beb565b8060005b83811015612c78578151612c5f8782612c04565b9650612c6a83612c1c565b925050600181019050612c4b565b505050505050565b6000606082019050612c956000830184612c29565b92915050565b600060208284031215612cb157612cb0612709565b5b6000612cbf8482850161295f565b91505092915050565b612cd181612798565b8114612cdc57600080fd5b50565b600081359050612cee81612cc8565b92915050565b60008060408385031215612d0b57612d0a612709565b5b6000612d198582860161295f565b9250506020612d2a85828601612cdf565b9150509250929050565b7f4e487b7100000000000000000000000000000000000000000000000000000000600052602160045260246000fd5b60038110612d7457612d73612d34565b5b50565b6000819050612d8582612d63565b919050565b6000612d9582612d77565b9050919050565b612da581612d8a565b82525050565b6000602082019050612dc06000830184612d9c565b92915050565b600080fd5b600067ffffffffffffffff821115612de657612de56129e3565b5b612def8261281d565b9050602081019050919050565b82818337600083830152505050565b6000612e1e612e1984612dcb565b612a43565b905082815260208101848484011115612e3a57612e39612dc6565b5b612e45848285612dfc565b509392505050565b600082601f830112612e6257612e616129de565b5b8135612e72848260208601612e0b565b91505092915050565b60008060008060808587031215612e9557612e94612709565b5b6000612ea38782880161295f565b9450506020612eb48782880161295f565b9350506040612ec5878288016128aa565b925050606085013567ffffffffffffffff811115612ee657612ee561270e565b5b612ef287828801612e4d565b91505092959194509250565b60008060408385031215612f1557612f14612709565b5b6000612f238582860161295f565b9250506020612f348582860161295f565b9150509250929050565b7f4e487b7100000000000000000000000000000000000000000000000000000000600052602260045260246000fd5b60006002820490506001821680612f8557607f821691505b60208210811415612f9957612f98612f3e565b5b50919050565b7f4552433732313a20617070726f76616c20746f2063757272656e74206f776e6560008201527f7200000000000000000000000000000000000000000000000000000000000000602082015250565b6000612ffb6021836127d9565b915061300682612f9f565b604082019050919050565b6000602082019050818103600083015261302a81612fee565b9050919050565b7f4552433732313a20617070726f76652063616c6c6572206973206e6f7420746f60008201527f6b656e206f776e6572206f7220617070726f76656420666f7220616c6c000000602082015250565b600061308d603d836127d9565b915061309882613031565b604082019050919050565b600060208201905081810360008301526130bc81613080565b9050919050565b600081905092915050565b50565b60006130de6000836130c3565b91506130e9826130ce565b600082019050919050565b60006130ff826130d1565b9150819050919050565b600060408201905061311e600083018561291e565b61312b602083018461291e565b9392505050565b7f4552433732313a2063616c6c6572206973206e6f7420746f6b656e206f776e6560008201527f72206f7220617070726f76656400000000000000000000000000000000000000602082015250565b600061318e602d836127d9565b915061319982613132565b604082019050919050565b600060208201905081810360008301526131bd81613181565b9050919050565b7f4e487b7100000000000000000000000000000000000000000000000000000000600052603260045260246000fd5b7f4552433732313a20696e76616c696420746f6b656e2049440000000000000000600082015250565b60006132296018836127d9565b9150613234826131f3565b602082019050919050565b600060208201905081810360008301526132588161321c565b9050919050565b7f4552433732313a2061646472657373207a65726f206973206e6f74206120766160008201527f6c6964206f776e65720000000000000000000000000000000000000000000000602082015250565b60006132bb6029836127d9565b91506132c68261325f565b604082019050919050565b600060208201905081810360008301526132ea816132ae565b9050919050565b7f4e487b7100000000000000000000000000000000000000000000000000000000600052601160045260246000fd5b600061332b82612889565b915061333683612889565b9250827fffffffffffffffffffffffffffffffffffffffffffffffffffffffffffffffff0382111561336b5761336a6132f1565b5b828201905092915050565b600061338182612889565b91507fffffffffffffffffffffffffffffffffffffffffffffffffffffffffffffffff8214156133b4576133b36132f1565b5b600182019050919050565b6000819050919050565b6133d2816133bf565b82525050565b600067ffffffffffffffff82169050919050565b6133f5816133d8565b82525050565b600061ffff82169050919050565b613412816133fb565b82525050565b600063ffffffff82169050919050565b61343181613418565b82525050565b600060a08201905061344c60008301886133c9565b61345960208301876133ec565b6134666040830186613409565b6134736060830185613428565b6134806080830184613428565b9695505050505050565b60008151905061349981612893565b92915050565b6000602082840312156134b5576134b4612709565b5b60006134c38482850161348a565b91505092915050565b600081905092915050565b60006134e2826127ce565b6134ec81856134cc565b93506134fc8185602086016127ea565b80840191505092915050565b600061351482856134d7565b915061352082846134d7565b91508190509392505050565b7f4f776e61626c653a206e6577206f776e657220697320746865207a65726f206160008201527f6464726573730000000000000000000000000000000000000000000000000000602082015250565b60006135886026836127d9565b91506135938261352c565b604082019050919050565b600060208201905081810360008301526135b78161357b565b9050919050565b7f4f776e61626c653a2063616c6c6572206973206e6f7420746865206f776e6572600082015250565b60006135f46020836127d9565b91506135ff826135be565b602082019050919050565b60006020820190508181036000830152613623816135e7565b9050919050565b7f4e487b7100000000000000000000000000000000000000000000000000000000600052601260045260246000fd5b600061366482612889565b915061366f83612889565b92508261367f5761367e61362a565b5b828206905092915050565b600060408201905061369f6000830185612d9c565b6136ac602083018461291e565b9392505050565b7f4552433732313a207472616e736665722066726f6d20696e636f72726563742060008201527f6f776e6572000000000000000000000000000000000000000000000000000000602082015250565b600061370f6025836127d9565b915061371a826136b3565b604082019050919050565b6000602082019050818103600083015261373e81613702565b9050919050565b7f4552433732313a207472616e7366657220746f20746865207a65726f2061646460008201527f7265737300000000000000000000000000000000000000000000000000000000602082015250565b60006137a16024836127d9565b91506137ac82613745565b604082019050919050565b600060208201905081810360008301526137d081613794565b9050919050565b7f4552433732313a20617070726f766520746f2063616c6c657200000000000000600082015250565b600061380d6019836127d9565b9150613818826137d7565b602082019050919050565b6000602082019050818103600083015261383c81613800565b9050919050565b7f4552433732313a207472616e7366657220746f206e6f6e20455243373231526560008201527f63656976657220696d706c656d656e7465720000000000000000000000000000602082015250565b600061389f6032836127d9565b91506138aa82613843565b604082019050919050565b600060208201905081810360008301526138ce81613892565b9050919050565b7f45524337323155524953746f726167653a2055524920736574206f66206e6f6e60008201527f6578697374656e7420746f6b656e000000000000000000000000000000000000602082015250565b6000613931602e836127d9565b915061393c826138d5565b604082019050919050565b6000602082019050818103600083015261396081613924565b9050919050565b600061397282612889565b915061397d83612889565b9250828210156139905761398f6132f1565b5b828203905092915050565b600081519050919050565b600082825260208201905092915050565b60006139c28261399b565b6139cc81856139a6565b93506139dc8185602086016127ea565b6139e58161281d565b840191505092915050565b6000608082019050613a05600083018761291e565b613a12602083018661291e565b613a1f60408301856129b4565b8181036060830152613a3181846139b7565b905095945050505050565b600081519050613a4b8161273f565b92915050565b600060208284031215613a6757613a66612709565b5b6000613a7584828501613a3c565b91505092915050565b7f4552433732313a206d696e7420746f20746865207a65726f2061646472657373600082015250565b6000613ab46020836127d9565b9150613abf82613a7e565b602082019050919050565b60006020820190508181036000830152613ae381613aa7565b9050919050565b7f4552433732313a20746f6b656e20616c7265616479206d696e74656400000000600082015250565b6000613b20601c836127d9565b9150613b2b82613aea565b602082019050919050565b60006020820190508181036000830152613b4f81613b13565b905091905056fea26469706673582212202fe1e3c04455e32fe51f2b8c088bc008ab546937fbc565f7d05b616ae318aca264736f6c63430008080033",
  "linkReferences": {},
  "deployedLinkReferences": {}
}